:020000000E2BC5
:10000600710DF80DF90D7408F8027508031C750FCB
:10001600F902F00DF10D0F30FC00710DF80DF90D20
:100026007408701C1C28F8027508031C750FF90269
:100036002128F80775080318750FF907F00DF10D5B
:10004600FC0B102870182D287408F807750803187B
:08005600750FF9070000080016
:10005E00831603178C1C352800002F2883120313D8
:10006E004E0803178D0003134F0803178C008316D9
:10007E008C130C150B08F0008B1355308D00AA3025
:10008E008D008C14F01B4D288B134E288B170C11E2
:02009E00080058
:1000A000831203134A08CE00FF304C05CF002F20E7
:1000B000831203134A0ACE004D08F000F101FF300D
:0800C0007005CF002F2008009D
:1000C800831203134A0803178D0083168C130C142C
:0800D80083120C08F00008007F
:1000E000831203137408003A031D7F287508003A31
:1000F000031D7F28FF30F0007F30F100D8288312E5
:100100000313FD01F901F8017108700403190034AB
:1001100071087506FA00FA1BFD09FB01F51F952809
:10012000F409F509F40A0319F50AF11F9C28F009EE
:10013000F109F00A0319F10A71087504FA00FA1BB3
:10014000B12803207B18C428FD1F0034F009F109F1
:10015000F00A0319F10AF809F909F80A0319F90A6A
:100160000034F51FC028F11BBC287108F900700885
:10017000F800F101F001A428F101F001F00A0034C7
:10018000F109F009FB0AA128F80A0319F90A740811
:100190007802031DA42875087902031DA428F9011B
:1001A000F801F00A0319F10AF11FA4280000FF3436
:0201B000080045
:1001B20083120313CA01CB012008CC002108CD0011
:1001C2005020023083120313CA000030CB003A08D9
:1001D200CC003B08CD005020043083120313CA0028
:1001E2000030CB003C08CC003D08CD005020080078
:0E01F2008312031341088A00400882000800AF
:10020000831203134708CA00642070080313C9004F
:10021000470ACA0064207008F300F2017208031351
:0C0220004904F00000307304F1000800F5
:10022C000A3083120313F4000030F5004708F00085
:10023C004808F10070207808F0007908F100700887
:10024C00BE007108BF000A30F4000030F50047080A
:10025C00F0004808F10070207008A2007108A3009B
:10026C0087147008F200F20D72107208243E84009C
:10027C000008860007100D30FC00FB30FD00FD0B64
:10028C004529FC0B45290000000007143E08F0002E
:10029C00F00D70107008243E840000088600871052
:1002AC000D30FC00FB30FD00FD0B5A29FC0B5A29CC
:0602BC0000000000080034
:1002C20083120313A001A101BA01BB01BC01BD014C
:1002D200881C7929881C78290D30FC00FB30FD0030
:1002E200FD0B7129FC0B7129000000006B29C52947
:1002F200081D9C29081D88290D30FC00FB30FD00DB
:10030200FD0B8129FC0B8129000000007B290030B4
:100312002102031D8E296330200203189329013024
:10032200C2009429C2014208A0070318A10A0030A2
:10033200C21BFF30A107881DBF29881DAB290D30C4
:10034200FC00FB30FD00FD0BA429FC0BA4290000DE
:1003520000009E292108003C031DB1292008003C11
:100362000318B6290130C300B729C3014308A0020C
:100372000030C31BFF30031C013EA1022008C7004E
:100382002108C80016216929881CD529881CD4296E
:100392000D30FC00FB30FD00FD0BCD29FC0BCD29FF
:1003A20000000000C729102A081DE729081DE429BA
:1003B2000D30FC00FB30FD00FD0BDD29FC0BDD29BF
:1003C20000000000D729BA0A0319BB0A881D0A2AAD
:1003D200881DF6290D30FC00FB30FD00FD0BEF29D6
:1003E200FC0BEF2900000000E9293B08003C031D3B
:1003F200FC293A08003C0318012A0130C400022AF1
:10040200C4014408BA020030C41BFF30031C013E81
:10041200BB023A08C7003B08C8001621C529881C40
:10042200202A881C1F2A0D30FC00FB30FD00FD0B2A
:10043200182AFC0B182A00000000122A6C2A081D38
:10044200432A081D2F2A0D30FC00FB30FD00FD0B56
:10045200282AFC0B282A00000000222A00303D0234
:10046200031D352A10303C0203183A2A0130C50018
:100472003B2AC5014508BC070318BD0A0030C51B4D
:10048200FF30BD07881D662A881D522A0D30FC00E8
:10049200FB30FD00FD0B4B2AFC0B4B2A0000000039
:1004A200452A3D08003C031D582A3C08003C03181D
:1004B2005D2A0130C6005E2AC6014608BC02003031
:1004C200C61BFF30031C013EBD023C08C7003D08AD
:0A04D200C8001621102AD9200800E6
:1004DC0083120313C201C301C401C5010715C20174
:1004EC00C3013D084302031D7D2A3C084202031848
:1004FC00BE2A071542088500C401C5012108450222
:10050C00031D8A2A2008440203189D2A0230FB008E
:10051C000430FC00BA30FD00FD0B922AFC0B922A31
:10052C00FB0B922A0000C40A0319C50A842A07117E
:10053C00C401C5013B084502031DA62A3A08440222
:10054C000318BA2A0B30FB002630FC005D30FD008E
:10055C00FD0BAE2AFC0BAE2AFB0BAE2A00000000F2
:10056C00C40A0319C50AA02AC20A0319C30A772AA6
:04057C00752A0800D4
:1005800083120313C701C80100217008A00071087D
:10059000A1000230C7000030C80000217008BA0076
:1005A0007108BB000430C7000030C800002170088B
:0805B000BC007108BD00080049
:1005B8008316031386018701FF30880085018312A3
:0A05C8008601870188018501080003
:1005D200F9208A110A128000840AC00A0319C10A8A
:0805E200F003031DE92A0800E3
:1005EA00023083120313FB000430FC00BA30FD0012
:1005FA00FD0BFD2AFC0BFD2AFB0BFD2A0000081C43
:10060A000B2B0130B8000030B9000D2BB801B9012D
:02061A000800D6
:10061C0083120313A001A101A201A3013F30A40086
:10062C00A5010630A600A7015B30A800A9014F3038
:10063C00AA00AB016630AC00AD016D30AE00AF016D
:10064C007D30B000B1010730B200B3017F30B4008F
:10065C00B5016F30B600B7010130B800B901BA016D
:10066C00BB01BC01BD01BE01BF01DC22F522C022D1
:0E067C00380839040319432B61216E22442BE8
:02400E004A2F37
:00000001FF
